:100000000C946E030C94B5030C94B5030C94B503D7
:100010000C94B5030C94B5030C94B5030C94B50380
:100020000C94B5030C94B5030C948F130C945B18CB
:100030000C949A350C94B5030C94B5030C94B50349
:100040000C94B5030C94B5030C94B5030C94B50350
:100050000C94B5030C9466140C94B5030C94B5037E
:100060000C94B5030C94B5030C94B5030C94B50330
:100070000C94B5030C94B5030C94B5030C94B50320
:100080000C94B5030C94B5030C94B5030C94B50310
:100090000C94B5030C94B5030C94B5030C94B50300
:1000A0000C94B5030C94B5030C94B5030501090237
:1000B000A10185020901A1000509190129081500FE
:1000C0002501950875018102050109300931158165
:1000D000257F95027508810609381581257F9501D0
:1000E00075088106050C0A38021581257F95017572
:1000F000088106C0C005010980A101850319012AF4
:10010000B700150126B700950175108100C0050CD8
:100110000901A101850419012AA002150126A002E6
:10012000950175108100C005010906A1018505052D
:100130000719E029E71500250195087501810205D9
:1001400007190029EF1500250195F07501810205B9
:10015000081901290595057501910295017503910D
:1001600001C00660FF0961A1010962150026FF00B8
:100170009520750881020963150026FF00952075FA
:10018000089102C005010906A101050719E029E748
:1001900015002501950875018102950175088101F9
:1001A0000507190029FF150026FF0095067508812F
:1001B000000508190129059505750191029501753C
:1001C000039101C0000000000000000000000000DA
:1001D000000000000000000000000000000000001F
:1001E00000000000000000007E0F00D4FFFFFFC7EA
:1001F0000000007800000000000000002A2B28000A
:1002000000000000000000000000000000000029C5
:10021000000000002C1E3420212224342627252E05
:10022000362D3738271E1F2021222324252633333D
:10023000362E37381F0405060708090A0B0C0D0E69
:100240000F101112131415161718191A1B1C1D2F35
:100250003130232D350405060708090A0B0C0D0E55
:100260000F101112131415161718191A1B1C1D2F15
:100270003130354C0001010101010101010102028F
:100280000202020202020203030303030303030444
:10029000040404040404050505050506060606060F
:1002A000070707070708080808090909090A0A0AC9
:1002B0000B0B0B0C0C0C0D0D0D0E0E0E0F0F0F106B
:1002C00010111111121213131414151516161717F5
:1002D000181819191A1A1B1B1C1D1D1E1E1F202061
:1002E000212222232424252626272829292A2B2CAB
:1002F0002D2D2E2F30313232333435363738393ACE
:100300003B3C3D3E3F404142434445464748494AC5
:100310004C4D4E4F50515354555658595A5B5D5E93
:100320005F616264656668696B6C6D6F707273752E
:1003300077787A7B7D7E8082838587888A8C8E8F92
:1003400091939596989A9C9EA0A2A3A5A7A9ABADC0
:10035000AFB1B3B5B7BABCBEC0C2C4C6C9CBCDCFAE
:10036000D1D4D6D8DBDDDFE2E4E7E9EBEEF0F3F55C
:10037000F8FAFDFF0A00323032312D30362D33309D
:100380002D31363A34343A3532000A01014A202000
:100390004275696C743A2000302E31332E31352D80
:1003A000322D673533616365340020207600514D6E
:1003B0004B204669726D776172650A00290A002038
:1003C00028003078000A002E2000427566666572AB
:1003D00020436C6561726564210A002000636F6DC3
:1003E0006D616E647320617661696C61626C653AFF
:1003F0000A202000165C1E001F00200021002200A1
:10040000230024002500260027002D002E003100A7
:100410002B0014001A000800150017001C0018001B
:100420000C00120013002F0030002A00E00004002E
:100430001600070009000A000B000D000E000F0057
:100440003300340035002800E1001D001B000600C9
:100450001900050011001000360037003800E500D3
:10046000000001580000E200E300000000002C0042
:100470000000000000000000E700E60000000000AF
:1004800002533A003B003C003D003E003F0040006C
:10049000410042004300440045004900390001008A
:1004A00001000100010001000100010046004700B9
:1004B00048005200010001000353A900AA00A8004F
:1004C000B0000100550054004A004B0050004F009E
:1004D0004C000100010001000100010001000100C9
:1004E000570056004D004E00510001000000010071
:1004F00000000100010000000000010000000000F9
:1005000000000000010001000000000001000100E7
:1005100001000100010001000100010001000100D3
:10052000010001000100010001000100715D655D35
:1005300001000100735D6E5D675D6B5D6C5D0100C8
:100540000100010001005F5D6D5D635D0100010060
:10055000665D685D695D6A5D010001000100010082
:1005600001000100725D615D6F5D605D0100010071
:100570000100010001000100000001000000010075
:100580000100000000000100000000000000000069
:100590000100010000000000005C015C145C01002F
:1005A0000100010001000100010001000100010043
:1005B000010001000100CD5CCE5CCF5CD05CD15C61
:1005C000D25CD35CD45C01000100C75C0100010077
:1005D0000100C45CC35CC25C0100010001000100B9
:1005E00001000100C65CC55CDE5C01000100010089
:1005F0000100010001000100C95CCA5CCC5CCB5C5D
:10060000C85C0100000001000000010001000000C2
:1006100000000100000000000000000001000100D7
:100620000000000022206E6F7420666F756E640AF1
:1006300000636F6D6D616E6420220001014A000A43
:100640000009025B00030100A0FA09040000010395
:100650000101000921110100012240000705810369
:1006600008000A0904010002030000000921110129
:100670000001222200070582032000010705030371
:1006800020000109040200010300000009211101FA
:10069000000122B6000705840320000A12011001A0
:1006A000000000085A44211302000102000118034F
:1006B00044005A00360030005200470042005F00FC
:1006C00057004B004C0000000E0344005A00540039
:1006D00045004300480000000403090411241FBE24
:1006E000CFEFDAE0DEBFCDBF04B603FE27C08091B6
:1006F000250A9091260AA091270AB091280A8730EE
:10070000904BA740B04BD1F41092250A1092260AC4
:100710001092270A1092280A14BE84B7877F84BFDC
:100720000FB6F894A895809160008861809360006E
:10073000109260000FBEE0E0F8E3099514E0A0E03D
:10074000B1E0ECE6F9E702C005900D92AE34B107D6
:10075000D9F72AE0AEE4B4E001C01D92A532B20799
:10076000E1F70E944A2B0C944D3C0C940000E8EDFC
:10077000F0E080818E7F80831092E2001092DA0098
:100780001092E100A0EEB0E08C9181608C938081AA
:100790008F77808319BCA7EDB0E08C918E7F8C930E
:1007A00080818F7E80831092F20708952091E4006B
:1007B0003091E50095E6A9012091EC00822F81702F
:1007C00020FF06C08091E80080FF06C080E0089509
:1007D0002091E80022FD1AC080911708882389F033
:1007E000853089F08091EB0085FD0FC02091E400F9
:1007F0003091E50042175307F9F29150E1F684E099
:10080000089582E0089583E0089581E00895EF92CD
:10081000FF920F931F93CF937C018B010E94D6030D
:10082000C82F811117C08091E80085FD0BC0809111
:10083000E8008E778093E8000E94D603882399F31E
:10084000C82F08C0F70181917F018093F10001500A
:10085000110949F78C2FCF911F910F91FF90EF90C5
:1008600008958091190887FF13C08091E80082FFE6
:1008700006C08091E8008B778093E80004C08091E7
:1008800017088111F2CF0895809117088823D9F3B2
:100890008091E80080FFF8CF8091E8008E77ECCF60
:1008A000982F9093E900242F762F50E0891731F08C
:1008B0007091EC002091ED005091F00021FD07C0F7
:1008C0009F5F973071F78093E90081E00895309140
:1008D000EB003E7F3093EB003091ED003D7F309395
:1008E000ED003091EB0031603093EB007093EC0041
:1008F0002093ED005093F0002091EE0027FDE0CF13
:1009000080E00895CF92DF92EF92FF920F931F93B2
:10091000CF93DF93C8EDD0E088818F7E8883E7EDA9
:10092000F0E080818160808384E082BF81E08093F9
:10093000F20788818E7F888302EE10E0F801108232
:100940001092DA0081EEC82ED12CF6011082888137
:100950008F77888388818068888388818F7D88836A
:1009600019BC1092170810921808109216081092CD
:10097000150890EEE92EF12CF70180818B7F8083A2
:1009800088818160888342E060E080E00E945004BA
:10099000F60180818E7F8083F80180818160808371
:1009A000808188608083F70180818E7F8083888149
:1009B00080618883DF91CF911F910F91FF90EF901D
:1009C000DF90CF900895FC0180911F08909120083E
:1009D00086179707A0F06115710529F49091E8003A
:1009E0009E779093E80090E06115710551F49111A4
:1009F00008C08091E80082FF34C080E00895BC0107
:100A0000F2CF809117088823C1F18530C1F1809120
:100A1000E80083FD30C08091E80082FDEACF80913C
:100A2000E80080FFE1CF8091F3002091F200382FA1
:100A30006115710519F02830310558F091E0283022
:100A4000310509F090E02091E8002E772093E8002E
:100A5000CBCF81918093F100615071092F5F3F4F9F
:100A6000E7CF80911708882341F0853041F08091CD
:100A7000E80083FFBECF81E0089582E0089583E01F
:100A8000089522E8241B08F420E0620F08954095A1
:100A9000282F429F412D1124842F0895E42FF0E048
:100AA000EE0FFF1FED56FC4F9081921B97FD919525
:100AB000292F38E1239F212D1124620F08950F93D0
:100AC0001F9310E0F801EE0FFF1FED56FC4F9081D1
:100AD000905797FD9195000F111FF801EC56FC4FB0
:100AE00000810052110B2003F001219FF00D112411
:100AF00008E310E0091B110997FD139540039001CD
:100B0000419F300D1124E20FF31F9F01220F331F6D
:100B10002E0F3F1F37FF02C021583F4F220F232FB8
:100B2000221F330B620F1F910F9108950F931F9394
:100B3000522F10E0F801EE0FFF1FEC56FC4FA08182
:100B4000A052BB0B9D015203F001539FF00D1124E5
:100B5000000F111FD801AD56BC4F0C910057110B5F
:100B600040039001419F300D11242E0F3F1F37FF8E
:100B700002C0215C3F4F96E0359527959A95E1F7A5
:100B8000620F1F910F9108950F931F93522F10E042
:100B9000F801EE0FFF1FEC56FC4FA081A052BB0BDB
:100BA0009D015203F001539FF00D1124000F111FFE
:100BB000D801AD56BC4F0C910057110B400390016A
:100BC000419F300D11242E0F3F1F37FF02C02158C7
:100BD0003F4F220F232F221F330B620F1F910F91C4
:100BE0000895EF920F93972F23E0029FB0011124F5
:100BF000759567956E0D792F0F91EF900895322FAF
:100C000050E0FA01EE0FFF1FEC56FC4F908190521E
:100C100097FD9195440F551FFA01ED56FC4F208129
:100C2000231B330B290F311D97FD3A95620F089551
:100C3000E42FF0E0EE0FFF1FEC56FC4F6081621BCB
:100C40000895E42FF0E0EE0FFF1FED56FC4F60819A
:100C5000621B0895622F0895E42FF0E0EE0FFF1F4E
:100C6000ED56FC4F408134EE439F412D1124E82F77
:100C7000F0E050E0445E5F4FDA01A21BB1099D0134
:100C8000B7FF03C031952195310993E0220F331F3F
:100C90009A95E1F7AF01421B530B9A0157FD20E0F3
:100CA000582F259F212D1124822F089580E008952B
:100CB0008091F40708959C014FB7F8948091EE0756
:100CC0009091EF07A091F007B091F1074FBF821B01
:100CD000930B089520912F012223C9F020914607FC
:100CE00027FF15C0E62FE695E695E695EE31D8F498
:100CF000E80FF92FF11D677021E030E001C0220FED
:100D00006A95EAF720958281282322830895FC01C1
:100D1000329608962191621303C0DF0111971C924D
:100D2000E817F907B9F7089520912F012223C1F0A0
:100D30002091460727FF14C0E62FE695E695E69535
:100D4000EE31F8F4E80FF92FF11D677021E030E083
:100D500001C0220F6A95EAF78281822B828308956F
:100D6000FC0132962FEF30E04191641751F02F3F94
:100D700019F4411101C0232F3F5F3630A9F72F3FEF
:100D800009F40895820F911D27FD9A95FC01628355
:100D90000895809141078111109241070895809133
:100DA000400790913F07892B90913E07892B8093B4
:100DB0005204909141079923A1F0892B809352040A
:100DC00080912F01882341F18091460787FF24C03D
:100DD0008EE1E4E5F4E090E0815000F591110E948D
:100DE000C906E091C907F091CA073097E1F08091F8
:100DF0002F01882359F08091460787FF07C0809113
:100E000052048093530485E0809352040280F3815E
:100E1000E02D82E594E0099486E0DBCF2191222346
:100E2000D9F29F5FD9CF08952EE0929F800D1124B3
:100E3000982F977086958695869525E0829FF0017C
:100E40001124E05FF84F50E040E080E0219130E075
:100E5000092E02C0369527950A94E2F721703327B0
:100E6000042E01C0220F0A94EAF7822B4F5F5F4FD6
:100E70004530510559F708952EE0929F800D1124B9
:100E8000982F977041E001C0440F9A95EAF7869534
:100E90008695869595E0899FF0011124E05FF84FD3
:100EA00090E080E070E05191DF0111979B01082EE6
:100EB00002C0369527950A94E2F7217021952527DF
:100EC000242325272C9301968530910561F70895F9
:100ED00080910F079091DE06981301C008958F5FEF
:100EE0008770FACF882341F080959091400789233D
:100EF000809340070C94CF060895882339F0909191
:100F00004007982B909340070C94CF0608952091AA
:100F10007704309178042817390771F0909378049A
:100F200080937704E091C907F091CA07309721F0C8
:100F30000084F185E02D0994089520917504309185
:100F400076042817390771F090937604809375041E
:100F5000E091C907F091CA07309721F00680F78128
:100F6000E02D09940895E091C907F091CA073097E0
:100F700021F00190F081E02D099480E008958091A6
:100F8000D3069091D406853091053CF084E090E042
:100F90009093D4068093D306089597FF04C01092CF
:100FA000D4061092D3060895FA01811101C0FB0105
:100FB0000994CF93DF938E33910520F5880F991F05
:100FC000880F991FFC01E35BFE4FA2813381808172
:100FD0008370C181E82FF0E050EC859FC00111249F
:100FE0008D5A974FC80FD92FD11D6883A80FB92FDD
:100FF000B11D4C93830F911DDC012C93ED52F64FE4
:1010000081E08083DF91CF910895FF920F931F932A
:10101000CF93DF93182F062FF42ED0E0C0E02F2DB2
:10102000402F612FCE010E94D9072196CE33D105E2
:10103000B1F7DF91CF911F910F91FF9008950C941C
:1010400005080C94D907FC019B01009729F480E066
:1010500077FF2BC080E80895AC0197FF04C04427B8
:101060005527481B590BB901640F751F37FD10C078
:10107000241B350BC901A5E0880F991FAA95E1F73C
:101080000E948D3680E2861BF7FF0FC08195089580
:10109000CB0165E0880F991F6A95E1F7BA01621BE1
:1010A000730B0E948D3680E6EECF0895EF920F937A
:1010B000CF93DF93D72FC82FC9010E19BA010E9411
:1010C0002308602F681B7D2F8C2FDF91CF910F910C
:1010D000EF9008950F93CF93DF93D72FC82FC901B7
:1010E000BA010E942308682F600F7D2F8C2FDF919B
:1010F000CF910F910895EF920F931F93CF93DF93AA
:10110000D62FC72F182FC9010E19010FBA010E943F
:101110002308081B202F219F212D1124822F6D2FA2
:101120007C2FDF91CF911F910F91EF9008950F9336
:101130001F93CF93DF93D62FC72F182FC901212FCD
:10114000201B022FBA010E942308982F990F990F94
:10115000891B800F282F219F212D1124822F6D2F75
:101160007C2FDF91CF911F910F910895E82F86FD7D
:10117000E0952E2F2F7086FD2F5FE695E695E6957C
:10118000E670F0E0EB5BFE4F9181929F902D212D58
:10119000112492959F702295207F922B2081920F8F
:1011A00087FD919580E8890F08950F931F93CF9342
:1011B000DF938B01D82FC42F822F0E94B608EC2F0B
:1011C000F0E0EE0FFF1FED56FC4F90819058890F15
:1011D00087FD8195880F682F2CE0629F612D112477
:1011E000600F712F8D2FDF91CF911F910F91089577
:1011F000AC018230910508F408959FEF413E8EE1E5
:10120000580740F49A0195E0369527959A95E1F7AD
:1012100098E0920F61E0E62FE90FFF27FF1F9F0183
:1012200035952795822F229FF001239FF00DF00D19
:1012300011244E175F0738F49FEF920F961758F757
:101240008FEF860F08952F3FE9F361E0620FF6CF2D
:101250000F93CF93DF93D72FC82F47FD419588E396
:1012600090E0841B910947FD9395889FB001899F69
:10127000700D700D1124229FC001239F900D900DC1
:101280001124860F971F0E94F808982F990F890F35
:10129000682F600F7D2F8C2FDF91CF910F910895D4
:1012A00030E020E0869F212D969F200D311D1124D6
:1012B000C9010895AF92BF92CF92DF92FF920F9330
:1012C0001F93CF93DF93362F472FE82FF0E0EC5892
:1012D000FD4F71110FC0E4918E2F2E2F6E2F722FA4
:1012E000DF91CF911F910F91FF90DF90CF90BF9032
:1012F000AF900895C72FD0E02491F22E022F10E076
:1013000056E0659FC0011124EFEFF0E0BF010E949D
:101310007936832F90E0880F991F35E5369FD001ED
:10132000379FB00D11248A1B9B0B982F990F980F94
:101330006F01CC1ADD0AC09ED001C19EB00DD09EB7
:10134000B00D11248B2F499FA0011124452F552743
:101350006F01C41AD50AC09EA001C19E500DD09E37
:10136000500D11245F01A91AB108AC9E6001AD9E19
:10137000D00CBC9ED00C1124CD2CDD24EC19FD0921
:10138000E09FE001E19FD00DF09FD00D1124ED2FE3
:1013900062307105A1F050F46115710509F49ECF1A
:1013A0006130710581F0EB2F852F98CF6430710586
:1013B00069F080F06630710509F490CFF4CFE22F28
:1013C0002B2F8D2F8BCFE22F252F88CFEB2F822F26
:1013D0002D2F84CF2B2F8F2DE52F80CF7F928F92B3
:1013E0009F92AF92BF92CF92DF92EF92FF920F93B4
:1013F0001F93CF93DF935C01C09130018DE0C89FB4
:10140000C02D11241DE01C0FF12E1F3310F03EE300
:10141000F32E60911D0A66958091120A9091130A2D
:101420000E945009782ED0E0CF1590F081E01E3355
:1014300008F080E0DF91CF911F910F91FF90EF9026
:10144000DF90CF90BF90AF909F908F907F90089546
:10145000FE01E15FFB4F8081909131018923C9F149
:10146000CE01880F991F835B9C4FFC01EA5BFF4F05
:101470002081422F4057550B6A01895B9F4FFC0129
:101480008081282F2052330B4901449F9001459FB2
:10149000300D300D1124889CC001899C900D900D59
:1014A0001124820F931F0E94F808082F60911A0AD6
:1014B00070911B0A80911C0AE72C9401A601F5018A
:1014C00009950E945A09462F282F672FCE010E94A6
:1014D00021082196A9CFCF92DF92EF92FF920F932E
:1014E0001F93CF93DF937C01C09130018DE0C89FA3
:1014F000C02D11241DE01C0FD12E1F3310F03EE330
:10150000D32E60911D0A66958091120A9091130A5C
:101510000E945009C82ED0E0CD1568F081E01E333E
:1015200008F080E0DF91CF911F910F91FF90EF9035
:10153000DF90CF900895FE01E15FFB4F8081909195
:101540003101892311F1CE01880F991F835B9C4FD4
:10155000FC01E95BFF4F20812052330B8A5B9F4FD8
:10156000FC0140814057550B60911A0A70911B0A8B
:1015700080911C0A0C2DF70109950E945A09462FEB
:10158000282F672FCE010E9421082196C5CFDF9218
:10159000EF92FF920F931F93CF93DF937C01C09143
:1015A00030018DE0C89FC02D11241DE01C0F012FBC
:1015B0001F3308F00EE360911D0A6695669521E0E1
:1015C000620F08F46FEF8091120A9091130A0E9443
:1015D0005009D82ED0E0C01760F081E01E3308F02B
:1015E00080E0DF91CF911F910F91FF90EF90DF90FE
:1015F0000895FE01E15FFB4F8081909131018923C5
:1016000091F060911A0A70911B0A80911C0A2D2D8D
:101610004C2FF70109950E945A09462F282F672F52
:10162000CE010E9421082196D6CF9F92AF92BF9201
:10163000CF92DF92EF92FF920F931F93CF93DF939E
:101640006C01C09130018DE0C89FC02D11241DE0B8
:101650001C0FB12E1F3310F03EE3B32E60911D0A14
:10166000669566958091120A9091130A0E9450091E
:10167000F82E80E48F0D0E94B60890E8A92EA80EDF
:101680008F2D0E94B60820E8922E980ED0E0CB1540
:1016900080F081E01E3308F080E0DF91CF911F9150
:1016A0000F91FF90EF90DF90CF90BF90AF909F9001
:1016B0000895FE01E15FFB4F808190913101892304
:1016C000A1F060911A0A70911B0A80911C0AEF2CFC
:1016D0000C2F292D4A2DF60109950E945A09462FF3
:1016E000282F672FCE010E9421082196D0CFCF92BC
:1016F000DF92EF92FF920F931F93CF93DF938C01B2
:10170000C09130018DE0C89FC02D11242DE0D22E54
:10171000DC0ECD2C2EE32D1510F49EE3C92E209166
:101720001D0A31E0230F08F42FEF30E050E040E0D5
:101730006FEF7FEF80E090E00E94D53B7901D0E031
:101740002C2FCC1570F081E0FDE3FD1508F480E04E
:10175000DF91CF911F910F91FF90EF90DF90CF908D
:101760000895FE01E15FFB4F808190913101892353
:1017700011F14091E9094150042E000C550B47FF2F
:101780001CC0C70160911D0A21E0620F08F46FEFD1
:101790000E945009AC0160911A0A70911B0A809155
:1017A0001C0AF80109950E945A09462F282F672F15
:1017B000CE010E9421082196C3CFFA01E751F64FCE
:1017C000818982130AC0FA01EE0FFF1FE751F64F1D
:1017D000818D928D8E159F05A8F241505109CFCF72
:1017E0004091D407803F59F48091D50787FF0DC001
:1017F0001092D50741110BC01092CF0708C0813F4E
:1018000081F48091D50718169CF3442381F08091D0
:10181000D6079091D707892B09F05AC01092CC07B0
:101820000895823F49F447FFF0CF1092D40780918A
:10183000D5078111ECCFE0CF833F19F41416ACF338
:10184000E4CF9091D607893F29F41916F4F6109247
:10185000D607DBCF8A3F19F497FFD7CFF8CF909107
:10186000D7078B3F29F497FFD0CF1092D707CDCF62
:101870008C3F19F41916CCF3C8CF9CE0980F953023
:1018800090F4845F990B21E030E0B90102C0660F4B
:10189000771F8A95E2F7CB0180959091D307892332
:1018A0008093D307B2CF8D3F31F48091D7068E7FDE
:1018B0008093D706AACF8E3F21F48091D7068D7FE3
:1018C000F7CF8F3F09F0A1CF8091D7068B7FF0CF64
:1018D00008958091D70680FD16C081FD16C082FD57
:1018E00016C08091CC078823A1F0883280F428E0CC
:1018F000829FC001112468E270E00E948D36862F1D
:10190000672B39F0089582E0089584E0089588E017
:10191000089581E008958091D70680FD14C081FD6F
:1019200014C082FD16C08091CF07882381F08431D6
:1019300080F422E3829FC001112464E170E00E94E0
:101940008D36862F08958CE0089589E1089585E00D
:10195000089582E30895803F31F40E948B0C8195B5
:101960008093D5070895813F19F40E948B0CF8CF1E
:10197000823F31F40E948B0C81958093D4070895A7
:10198000833F19F40E948B0CF8CF893F29F40E9401
:10199000690C8093D60708958A3F21F40E94690C50
:1019A0008195F7CF8B3F31F40E94690C819580932C
:1019B000D70708958C3F19F40E94690CF8CF9CE07A
:1019C000980F953070F4845F990B21E030E001C0EE
:1019D000220F8A95EAF78091D307822B8093D30751
:1019E00008958D3F31F48091D70681608093D706AA
:1019F00008958E3F21F48091D7068260F7CF8F3F04
:101A0000B9F78091D7068460F1CFF894E82FE2957A
:101A1000EF70F0E031A1282F2F7081E090E001C03D
:101A2000880F2A95EAF7982F9095932391A392A176
:101A3000892B82A3789408959091460792FF06C05F
:101A4000282F28712830F9F4877F846093FF06C01F
:101A5000282F28712831F1F4877E8461209147076F
:101A600020FF06C0382F38713830D9F4877F816065
:101A700021FF06C0282F28712831D1F4877E81618B
:101A800094FD877E0895282F24712430F9F68B7FEA
:101A90008860DCCF282F2471243101F78B7E886188
:101AA000DDCF382F3171313019F78E7F8860E0CF6C
:101AB000282F2171213121F78E7E8861E1CF80931B
:101AC000D5096093D60924E630E042E050E065EDA8
:101AD00079E080EA0E94523621E0892B09F020E06B
:101AE000822F0895FF920F931F93CF93DF93C82FF8
:101AF000082F10E00F5A174FF80180818823B9F0A2
:101B000065EC8EEF0E945F0D60E08DEF0E945F0D2F
:101B1000F8E1CF9FE0011124CF5DD74FF12C6991FF
:101B20008F2D0E945F0DF39488E1F812F8CFF80131
:101B30001082DF91CF911F910F91FF900895CF9266
:101B4000DF92EF92FF920F931F93CF93DF93C82FF3
:101B5000C82ED12CC6018D52964F7C01FC0180818C
:101B6000882369F165EC8EEF0E945F0D61E08DEFD7
:101B70000E945F0DF0ECCF9FE0011124CD5AD74FAA
:101B800010E000E00093D509DE01A00FB11FE6EDE3
:101B9000F9E08D91819389E0E63EF807D1F724E6DC
:101BA00030E041E150E065ED79E080EA0E94523694
:101BB000892B81F4005F1F4F003C110519F7F701D5
:101BC0001082DF91CF911F910F91FF90EF90DF90E6
:101BD000CF900895F601EF5AF74F81E08083EFCF61
:101BE00080E00E949F0D81E00C949F0DCF9384E0D4
:101BF00090E00E94613BC82F82E290E00E94613B2E
:101C0000982F8C2FCF9108950F931F93CF93DF932D
:101C1000C42FD0E0CC0FDD1F2CE1629FC00DD11D81
:101C200011243CE8839FC00DD11D1124CE0187965D
:101C30000E94613B082F10E0102F0027CE018896EC
:101C40000E94613B9801282BC901DF91CF911F9120
:101C50000F910895462F843038F4753028F46E3093
:101C600018F4672F0C94040E90E080E00895CF9351
:101C7000DF930E942A0EEC0182389105A9F1D8F574
:101C80008133910509F496C048F58932910509F42C
:101C90008AC08A9709F495C0C11521E5D20708F0DA
:101CA000BCC0C11530E5D30708F014C1C83ED1054A
:101CB00008F09CC0C03ED10560F5C83AD10508F0D7
:101CC00087C0C53AD10508F0FDC0C130D10509F182
:101CD0002097F9F0C430D105E0F440C08533910578
:101CE00009F45AC0C997C1F680914607837089F0FC
:101CF000C0EED0E00EC0833E910599F170F4803EB5
:101D0000910501F1823E910539F68091460782FDE9
:101D100021C0CE01DF91CF910895863E910561F1FA
:101D2000873E910571F1843E910509F0B5CF809110
:101D3000470781FFEECF80914607C7EED0E084FDD4
:101D40000DC0E7CF8091460780FD12C190914707F3
:101D500090FFDFCFC3EED0E084FFDBCFD0E0C0E068
:101D6000D8CF8091460782FD06C19091470790FD2C
:101D7000BFCF84FFCECFF2CF8091460783FDDDCF6A
:101D8000C8CF8091460783FDF9C09091470791FF26
:101D9000F0CFC4EED0E0BDCF8091460785FFB9CF2C
:101DA000C9E2D0E0B6CF8091460785FFB2CFC5E348
:101DB000D0E0AFCF8091460786FFABCFCAE2D0E03C
:101DC000A8CF8091460786FFA4CFC1E3D0E0A1CF82
:101DD000CF3BD10518F6C85AD0E0CC0FDD1FC35059
:101DE000DD4F0990D881C02DD46493CFC11540E256
:101DF000D40758F4C11581E0D80708F08ACFC03F56
:101E0000D10508F4ABCFD06584CFC11590E4D907D4
:101E100008F4A4CFDF70D06A7CCFC11525E5D207C6
:101E200000F5C11534E5D30708F08AC0C11543E5B4
:101E3000D40708F071C0C11582E5D80708F467C05F
:101E4000CE018370992721E030E002C0220F331FBA
:101E50008A95E2F7C695C69580E2C89FE0011124F5
:101E600052C0C11599E5D907A8F4C11528E5D207D4
:101E700008F06BC0C11536E5D30708F06FCF8C2F83
:101E80000E941C0DC82FD0E0DC2FCC27CC27DF719F
:101E9000D0623FCFC1154AE5D40708F45BC0CE013C
:101EA00090568115904208F059CF8D2F8F710E9466
:101EB0001C0D90E0982F882788279F719C012C2B60
:101EC000E901E6CFC55AD0E0C650DD4FC881D0E069
:101ED000D0641FCFCE01E4E096958795EA95E1F7AF
:101EE00083702C2F26952695237040E2249F900125
:101EF0001124382B8C2F8370C1E0D0E002C0CC0FAE
:101F0000DD1F8A95E2F7C22BD32BDC6802CFDC2FD2
:101F1000CC27C16FD06AFDCECE018370992721E016
:101F200030E002C0220F331F8A95E2F7C695C695AE
:101F300090E2C99FE0011124C22BD32BDA68E9CECD
:101F4000DC2FCC27C46FD06AE4CEDC2FCC27C06F47
:101F5000D06ADFCE8C2F8F700E941C0D34E0D69596
:101F6000C7953A95E1F7CF709C2FEC01D069D1CE9F
:101F7000C9E3D0E0CECEC2EED0E0CBCEC6EED0E00C
:101F8000C8CEBF92CF92DF92EF92FF920F931F9332
:101F9000CF93DF938C01C0901F0AD090200AE0906D
:101FA000210AF090220A8091420790914307A09164
:101FB0004407B0914507C82AD92AEA2AFB2ACFE16B
:101FC000D0E0BC2ED701C6010C2E04C0B695A79553
:101FD000979587950A94D2F780FD0EC0219788F7D0
:101FE000B12C8B2DDF91CF911F910F91FF90EF902E
:101FF000DF90CF90BF900895B8018C2F0E94370ECC
:10200000019761F3EECFCF93DF93EC010E94C10FF4
:10201000BE01DF91CF910C94370E0E940310292F3F
:102020002F7092959F7092509E3078F4E92FF0E0D7
:10203000E15BF34C0C94A136803F19F020F4883E0C
:1020400020F481E00895843FE1F380E00895883E24
:10205000C0F3813FD1F7F5CF822F8695869586957F
:1020600008956F927F928F929F92AF92BF92CF927C
:10207000DF92EF92FF920F931F93CF93DF9384EF42
:10208000C82E83E0D82E9FECE92EF12CE701CC5826
:10209000D10936011BC0F50185909490692DC801C6
:1020A0000E947F3B682DC80101960E947F3B82E021
:1020B000A80EB11C0E5F1F4FC017D10761F78CE14E
:1020C000680E711C6C96CE15DF0529F08E010C513F
:1020D00011095301E0CF7E018CE8E80EF11C8CE879
:1020E000C80ED11C8FEFE81682E0F80679F6DF9172
:1020F000CF911F910F91FF90EF90DF90CF90BF9005
:10210000AF909F908F907F906F900895CF93C091E4
:102110004707C2FB992790F9981781F080FBC2F915
:10212000C09347076091460784E090E00E947F3BA0
:102130006C2F82E290E0CF910C947F3BCF91089579
:10214000CF93DF93C7E5D2E060E0CE010E947F3BF2
:102150002196C11584E0D807B9F7DF91CF91089592
:102160001F93CF93DF93EC01FC01E15FFB4F808174
:102170006823A1F00E94FA36182F0E94FA36612FC8
:10218000782F80911C0A0E945A09462F282F672F0A
:10219000CE01DF91CF911F910C942108DF91CF9157
:1021A0001F910895DF92EF92FF920F931F93CF93A9
:1021B000DF938C01FC01E15FFB4F8081682381F19B
:1021C000D0901B0AD0911C0AC0911A0AEC2EF12C57
:1021D0000E94FA36282FC7018C549F4F68E671E0A1
:1021E0000E948D368E199F0997FD039695958795C8
:1021F0009595879523706C2F289F600D11247D2D58
:102200008D2F0E945A09462F282F672FC801DF9172
:10221000CF911F910F91FF90EF90DF900C942108C8
:10222000DF91CF911F910F91FF90EF90DF90089574
:10223000CF93DF9300D00F92CDB7DEB79091170800
:10224000943011F589837B836A839093E9008FEF43
:102250009091E800815095FD06C095ED9A95F1F7B3
:1022600000008111F5CF8091E80085FF0DC050E09E
:1022700040E063E070E0CE0101960E940704809187
:10228000E8008E778093E8000F900F900F90DF9119
:10229000CF910895BC0184E00C941811BC0183E037
:1022A0000C9418119C0184E08093E9009FEF8091C9
:1022B000E800915085FD06C085ED8A95F1F7000094
:1022C0009111F5CF8091E80085FF0CC050E040E00F
:1022D00066E070E0C9010E9407048091E8008E77F3
:1022E0008093E8000895CF93DF93EC0180912F0154
:1022F0008823B1F18091460787FF32C060E284E015
:102300008093E9008FEF9091E800815095FD06C021
:1023100095ED9A95F1F700008111F5CF8091E800D5
:1023200085FF1BC080912F0170E050E040E08111DB
:1023300004C050E040E068E070E0CE010E94070475
:102340008091E8008E778093E80080E2FE01A5EF9F
:10235000B7E001900D928A95E1F7DF91CF91089552
:1023600068E081E0CDCF81E08093E00080E280935F
:10237000D8001092C9008FE19EE40197F1F700C0E8
:10238000000087E090EBDC018093250A9093260AF9
:10239000A093270AB093280A88E19CE00FB6F8942E
:1023A000A895809360000FBE90936000FFCF6AEE07
:1023B0007EEF90E080E00E949D3B60E082E090E054
:1023C0000E947F3B60E083E090E00E947F3B1092A0
:1023D000420710924307109244071092450760E0AD
:1023E00084E090E00E947F3B60E082E290E00E9407
:1023F0007F3B60E085E090E00E947F3B60E086E00C
:1024000090E00E947F3B6FEF87E090E00E947F3B6F
:1024100040E050E0BA0188E090E00E94913B60E02B
:102420008DE090E00E947F3B40E050E0BA0188E1FF
:1024300090E00E94913B60E087E190E00E947F3B4A
:1024400040E050E0BA018CE190E00E94913B70E0E6
:1024500060E080E290E00E949D3B40E050E0BA01E5
:1024600088E190E00E94913B40E050E0BA018FE0AB
:1024700090E00E94913B40E050E0BA0183E190E09F
:102480000C94913BCF92DF92FF920F931F93CF93C7
:10249000DF930E94C13565EC8EEF0E945F0D60E016
:1024A0008DEF0E945F0DC0E060E08C2F0E945F0DF9
:1024B000CF5FC831C9F765EC8EEF0E945F0D61E018
:1024C0008DEF0E945F0DC0E060E08C2F0E945F0DD9
:1024D000CF5FC03CC9F765EC8EEF0E945F0D63E0F3
:1024E0008DEF0E945F0D6FEF81E00E945F0D61E054
:1024F00080E00E945F0D8FE39CE90197F1F700C037
:102500000000EDE4F1E050E040E098E1F92EC1E098
:10251000D0E001E0118172816381DA01AA0FBB1F53
:10252000AA0FBB1FA35BBE4F8C91837090E0A12FBD
:10253000A695A695A695F89E9001F99E300D1124BA
:102540002F5D374FA20FB32FB11D17706E0101C061
:10255000CC0C1A95EAF71C911C291C93A72FA69561
:10256000A695A695A20FB32FB11D77706E0101C07D
:10257000CC0C7A95EAF77C917C297C93A62FA695C2
:10258000A695A695A20FB32FB11D67709E0102C03C
:10259000220F331F6A95E2F7B9012C91262B2C9359
:1025A0008F5A974FDC010C934F5F5F4F34964E3339
:1025B000510509F0AFCF80E00E94720D81E0DF91FC
:1025C000CF911F910F91FF90DF90CF900C94720DDF
:1025D00046E050E06CE170E089E19AE00C946F3BDA
:1025E0009091190A937089F0811107C094609093BB
:1025F000190A109233010C94E8128B3110F098668E
:10260000F6CF880F880F982BF2CF08958091190A82
:1026100086958695815009F48AE10C94F012809198
:10262000190A869586958F5F8B3108F081E00C94AE
:10263000F0129091190A937041F080931A0A6093F6
:102640001B0A40931C0A0C94E8120895E9E1FAE091
:10265000438120E1421B08F440E08181628190E0E7
:102660000C941913E9E1FAE0438120E1420F08F4E8
:102670004FEF8181628190E00C941913E9E1FAE057
:10268000628120E1621B08F460E08181438190E077
:102690000C941913E9E1FAE0628120E1620F08F479
:1026A0006FEF8181438190E00C941913E9E1FAE026
:1026B0008181438162818850990B0C941913E9E15F
:1026C000FAE0818190E04381628108960C941913AD
:1026D000E9E1FAE0248130E1230F08F42FEF2483AD
:1026E0000C94E812E9E1FAE0248130E1231B08F4BC
:1026F00020E024830C94E812E9E1FAE085E280838B
:102700008091340190913501A091360181839283AB
:10271000A3838FE784838FEF85830C94E8121F9245
:102720000F920FB60F9211242F933F934F935F9305
:102730006F937F938F939F93AF93BF93EF93FF9389
:102740008091E10082FF09C08091E20082FF05C014
:102750008091E1008B7F8093E1008091DA0080FF1F
:1027600024C08091D80080FF20C08091DA008E7F45
:102770008093DA008091D90080FF9BC080E189BD01
:1027800082E189BD09B400FEFDCF81E08093170886
:102790008091F207811109C00E94B7030E94820450
:1027A0008091E20084608093E2008091E10080FFEC
:1027B00017C08091E20080FF13C08091E2008E7FFD
:1027C0008093E2008091E20080618093E20080913A
:1027D000D80080628093D80019BC85E080931708E8
:1027E0008091E10084FF29C08091E20084FF25C030
:1027F00080E189BD82E189BD89B5982F917080FF04
:10280000FBCF8091D8008F7D8093D8008091E1002C
:102810008F7E8093E1008091E2008F7E8093E200C2
:102820008091E20081608093E20080911808882303
:1028300009F445C084E0809317088091E10083FF8C
:1028400027C08091E20083FF23C08091E100877F51
:102850008093E10082E0809317081092180880911D
:10286000E1008E7F8093E1008091E2008E7F809373
:10287000E2008091E20080618093E20042E060E04B
:1028800080E00E9450048091F00088608093F00006
:10289000FF91EF91BF91AF919F918F917F916F9138
:1028A0005F914F913F912F910F900FBE0F901F900E
:1028B000189519BC109217081092F20776CF8091E4
:1028C000E30087FD93E090931708B7CF78941F92A9
:1028D0001FB61F9211248F939F93AF93BF93809144
:1028E000EE079091EF07A091F007B091F1070196E4
:1028F000A11DB11D8093EE079093EF07A093F00701
:10290000B093F107BF91AF919F918F911F901FBE20
:102910001F9018952FB7F8948091EE079091EF07CC
:10292000A091F007B091F1072FBF08950E948A147B
:102930009C019091D4078091D507982B21F030937A
:10294000D1072093D0079091D6078091D707982B75
:1029500021F03093CE072093CD07E091C907F09185
:10296000CA07309749F082E08093D2070480F5814E
:10297000E02D82ED97E00994089590E080E00E94B8
:102980009D0790E080E00E94870710923F07109219
:102990003E070E94CF0686E0E2EDF7E0DF011D92E0
:1029A0008A95E9F71092CF071092CC071092D706BC
:1029B0000C94961460931F0A7093200A8093210A46
:1029C0009093220A0C94BD140F931F9360911F0AD9
:1029D0007091200A8091210A9091220A8B019C011A
:1029E00006701127222733270630110521053105EE
:1029F00029F468601F910F910C94DA14677FFACF65
:102A00000F931F9341E050E060E070E004C0440F7A
:102A1000551F661F771F8A95D2F7CB01BA016095C3
:102A200070958095909500911F0A1091200A209131
:102A3000210A3091220A60237123822393231F915C
:102A40000F910C94DA1490913D078095892380931F
:102A50003D07282F277039F4282F082E000C330B40
:102A60009217130621F49091470792FF07C08595AE
:102A7000859585950E94001510923D0708950F9346
:102A80001F9341E050E060E070E004C0440F551F28
:102A9000661F771F8A95D2F780911F0A9091200AAE
:102AA000A091210AB091220A8A019B01082B192BBF
:102AB0002A2B3B2BC901B8011F910F910C94DA14FA
:102AC0000F931F9341E050E060E070E08A019B01AA
:102AD00004C0000F111F221F331F8A95D2F7C901AE
:102AE000B8011F910F910C94DA1460934207709310
:102AF000430780934407909345070C94BD141092AC
:102B0000400780912F01E4E5F4E0882359F080919B
:102B1000460787FF07C08EE1DF011D928A95E9F71E
:102B20000C94BD1486E0F8CF1F93CF93DF93CDB7FD
:102B3000DEB7AA970FB6F894DEBF0FBECDBF89E10E
:102B400098E02091F100DC012D93CD01B8E08132B5
:102B50009B07B9F780911A08833009F471C0B8F463
:102B6000813009F448C0823009F4B2C08091E80095
:102B700083FF3AC18091190890911A089A3008F0A1
:102B800033C1E92FF0E0E35AF34C0C94A1368A30BC
:102B900009F48DC08B3009F470C0893039F7809109
:102BA0001908813219F780911D0890911E0800972D
:102BB00011F00297D9F68091E800877F8093E800B2
:102BC0008091E80082FF37C09091F3008091F2007D
:102BD000029729F48091F1008B7F813021F480915C
:102BE000F1008093F4078091E8008B778093E800F0
:102BF0000E943104BBCF80911908813A09F0B6CF09
:102C00008091E800877F8093E80080911D08909173
:102C10001E08892B61F460E285EF97E070E00E9466
:102C2000E3048091E8008B778093E8009FCF60E019
:102C300090E080E0F3CF809117088111C1CF96CF4B
:102C400080911908813A09F091CF80911D089091E7
:102C50001E08892B09F08ACF8091E800877F809336
:102C6000E8008091E80080FFFCCF80912F018093E5
:102C7000F1008091E8008E77B9CF809119088132F8
:102C800009F074CF80911D0890911E08892B09F0DE
:102C90006DCF8091E800877F8093E8000E94310427
:102CA00080911B0880932F010E947F155FCF809138
:102CB0001908813209F05ACF8091E800877F80930C
:102CC000E8000E94310480911C088093F3074ECFE6
:102CD00080911908813A09F049CF8091E800877FF7
:102CE0008093E8008091E80080FFFCCF8091F3079B
:102CF000BECF803899F0823809F076C080911D08E7
:102D00008F70873008F070C08093E9008091EB00ED
:102D100085FB882780F91092E90006C0809115088C
:102D200090911608911182609091E800977F90939E
:102D3000E8008093F1001092F1008091E8008E7716
:102D4000B5C1882309F4A2C1823009F04DC0809139
:102D50001B088111A6C180911D088F702FEF280FCD
:102D6000263008F041C08093E9002091EB0020FF5D
:102D700098C1933031F48091EB0080628093EB0036
:102D800090C19091EB0090619093EB0021E030E0D6
:102D900001C0220F8A95EAF72093EA001092EA0018
:102DA0008091EB008860EACF81111EC010911B0852
:102DB0001F778091E3008078812B8093E3008091DE
:102DC000E800877F8093E8000E9431048091E8004A
:102DD00080FFFCCF8091E30080688093E30082E075
:102DE000111183E0809317088091E80083FF0AC0E7
:102DF0008091E800877F8093E8008091EB008062FB
:102E00008093EB00AA960FB6F894DEBF0FBECDBF3D
:102E1000DF91CF911F9108958058823028F720913B
:102E20001B0830911C082C3DE3E03E07A1F583E030
:102E30008A838AE289834FB7F894DE01139620E0F3
:102E40003EE051E2E32FF0E050935700E49120FF81
:102E500003C0E295EF703F5FEF708E2F90E0EA3095
:102E6000C0F0C7968D939D932F5F243159F74FBFC4
:102E70008091E800877F8093E8006AE270E0CE01ED
:102E800001960E94E3048091E8008B778093E8002C
:102E9000ABCFC096E7CF80911D0890911E08432FBD
:102EA00055274330510509F44AC078F541305105A2
:102EB00009F47AC08BE590E0E1E4F6E04230510598
:102EC00009F092CF2091E800277F2093E80020911D
:102ED0001F08309120088217930708F49C0140E0F6
:102EE0002115310509F065C0411163C08091E800EA
:102EF00082FDC9CF80911708882329F2853019F205
:102F00008091E80083FFF2CFBECF4132510509F432
:102F10003CC04232510509F067CF8330910508F07B
:102F200063CFFC01EE0FFF1FEF5BFC4F0190F081C0
:102F3000E02D825C9C4FDC018C9190E01AC033271D
:102F400021303105D1F02115310561F022303105F4
:102F500009F04ACFEEEAF6E0E4918E2F90E0EEEA37
:102F6000F6E007C0E8EDF6E0E4918E2F90E0E8EDA2
:102F7000F6E0009709F438CFA5CFE8ECF6E0E4914D
:102F80008E2F90E0E8ECF6E0F4CF8330910508F066
:102F90002BCF880F991FFC01E95BFC4F0190F0815A
:102FA000E02D89E090E08ECF82E190E0ECE9F6E060
:102FB00089CF80911708882309F465CF853009F4FB
:102FC00062CF8091E80083FD5ECF8091E80082FDB2
:102FD0008DCF8091E80080FF83CF9091F3008091A6
:102FE000F2002115310519F08830910550F041E0CB
:102FF000089709F040E08091E8008E778093E80020
:103000006FCF44914093F1003196215031090196E0
:10301000E8CF803809F0E8CE8091E800877F809380
:10302000E800809118088093F10087CE8111DCCEF2
:1030300010911B08123008F0D7CE8091E800877FEE
:103040008093E800109318080E943104112311F0B6
:1030500084E005C08091E30087FDFACF81E0809392
:10306000170842E061EC81E00E94500442E261EC0A
:1030700084E00E94500442E261EC82E00E9450042D
:1030800042E260EC83E00E945004AECE80911B08C7
:10309000813009F0A9CE81E0933009F080E080937F
:1030A00016081092E9008091E800877F8093E8007D
:1030B0000E94310499CE1F920F920FB60F921124E5
:1030C0002F933F934F935F936F937F938F939F9330
:1030D000AF93BF93CF93DF93EF93FF93D091E9002A
:1030E000DF708091EC00C82FC17080FDC0E81092A5
:1030F000E9008091F000877F8093F00078940E942F
:1031000094151092E9008091F00088608093F0009F
:10311000CD2BCF70C093E900FF91EF91DF91CF915C
:10312000BF91AF919F918F917F916F915F914F91DF
:103130003F912F910F900FBE0F901F9018958823ED
:10314000B1F19CEF980F913A38F4682F82E594E042
:103150000E946A060C94CF0690E2980F983088F48B
:10316000877021E030E0A90102C0440F551F8A9505
:10317000E2F7CA0180959091400789238093400728
:10318000E9CF9BE5980F933020F490E080E00C9419
:103190009D0798E5980F973120F490E080E00C941B
:1031A0008707803F20F00E94F00B0C94961408953E
:1031B0000C949F18CF93C82F882309F46FC08CEF0D
:1031C0008C0F813AC0F580912F01882311F18091F5
:1031D000460787FF1EC0EC2FE695E695E695F0E0E2
:1031E000EE5AFB4F828190E04C2F477021E030E097
:1031F00002C0220F331F4A95E2F782239323892BC3
:1032000091F06C2F82E594E00E946A060E94CF063E
:103210000AC0E4E5F4E08AE594E02191C21789F35D
:103220008E179F07D1F76C2F82E594E00E949406D9
:10323000CF910C94CF0680E28C0F883068F4C77071
:1032400021E030E001C0220FCA95EAF780914007E3
:10325000822B80934007ECCFEBE5EC0FE33040F49A
:10326000F0E0E650FD4F808190E0CF910C949D07F7
:10327000E8E5EC0FE73150F4F0E0EE0FFF1FE3500C
:10328000FD4F80819181CF910C948707C03F30F032
:103290008C2F0E94AB0CCF910C949614CF91089573
:1032A0001F93CF93DF93182FD0E0C0E0893311F440
:1032B000C0E5D0E0812F0E94DA18209731F4812FE9
:1032C000DF91CF911F910C949F188FE99FE0019798
:1032D000F1F700C000002197F0CF0F931F93CF9319
:1032E000DF93C62FD42F022FFC0182818823A1F007
:1032F0006093180A0E948A149093170A8093160A02
:10330000C77081E001C0880FCA95EAF7DF91CF91BD
:103310001F910F910C947D078091180A681335C096
:103320008091160A9091170A0E945B06883C9105CD
:1033300060F510E21D0FCD17B9F080E28C0F8830D8
:1033400040F4C77081E001C0880FCA95EAF70E9477
:103350007207183048F481E09D2F977001C0880FE4
:103360009A95EAF70E947D07802F0E945019183025
:1033700098F4D77081E001C0880FDA95EAF7DF9101
:10338000CF911F910F910C947207C77081E001C01B
:10339000880FCA95EAF7F3CFDF91CF911F910F9174
:1033A0000895DF92EF92FF920F931F93CF93DF93D5
:1033B000E82FF0E0EC50FE4FD490282F269526956C
:1033C000269530E0F901EC51FE4F0491877010E032
:1033D000082E02C0159507950A94E2F7017011278F
:1033E000F901EC52FE4FE490F12C082E02C0F59446
:1033F000E7940A94E2F791E0E922FF24F901EC5303
:10340000FE4FC491D0E002C0D595C7958A95E2F7EA
:10341000C170DD270115110519F081EE0E94DA183F
:10342000E114F10419F086EE0E94DA188D2D0E9445
:103430005019EF2819F086EE0E949F18012B19F001
:1034400081EE0E949F18CD2B51F08CE2DF91CF913D
:103450001F910F91FF90EF90DF900C945019DF9126
:10346000CF911F910F91FF90EF90DF900895FF9201
:103470000F931F93CF93DF938C018AE0F82EF8010E
:103480008491882309F44BC0813009F044C0E801DD
:103490002196FE018491813049F42196FE018491A8
:1034A0000E9450198E010F5F1F4FE9CF823039F40F
:1034B000E8012296FE0184910E94DA18F3CF83304E
:1034C00039F4E8012296FE0184910E949F18EACF08
:1034D000843041F7E8012296FE01249190E080E0DB
:1034E000FE0131962053330B2A30310548F0019705
:1034F000C8F2EFE9FFE03197F1F700C00000F7CF25
:10350000F89EA001F99E500D1124C901840F951F4A
:103510002491EF01E5CF0E94D119E801C3CFDF91DB
:10352000CF911F910F91FF900895E3EFF4E080E9B0
:1035300091E0DF019C011D9221503040E1F78AECBF
:1035400093E00C94371A1092D50684E793E00C941C
:10355000371A1F93CF93DF93EC011AE088818823F9
:1035600009F43EC08130C9F599818A81913029F4EE
:1035700022960E9450192196F1CF923021F4229682
:103580000E94DA18F8CF933021F422960E949F18F7
:10359000F2CF943011F02196EECF229630E020E069
:1035A000AE014F5F5F4F8053990B8A30910550F009
:1035B0002150310900F38FE99FE00197F1F700C036
:1035C0000000F6CF129FB001139F700D11249C01D3
:1035D000260F371F8981EA01E3CF0E94D119CBCF93
:1035E000DF91CF911F910895CF93DF938DED93E0FD
:1035F0000E94371AC5E0D1E0888199810E94A91AFA
:103600008BED93E00E94371A249681E0C132D807EF
:1036100099F781E291E0DF91CF910C94A91ADF92A2
:10362000EF92FF920F931F93CF93DF930F92CDB73B
:10363000DEB72FEF84E39CE0215080409040E1F71B
:1036400000C0000083EFE82E84E0F82E10E000E0D8
:1036500090E2D92ED9824AE0BE016F5F7F4FC80148
:103660000E944F38CE0101960E94A91A87EC93E080
:103670000E94371AC7010E94A91A85EC93E00E94A4
:10368000371A0F5F1F4F20E5E20EF11C05301105C0
:1036900009F70F90DF91CF911F910F91FF90EF905D
:1036A000DF9008956F927F928F929F92AF92BF9218
:1036B000CF92DF92EF92FF920F931F93CF93DF93FE
:1036C000CDB7DEB728970FB6F894DEBF0FBECDBFDB
:1036D00080918F04882309F447C04AE050E070E0ED
:1036E00060E08FE894E00E940A372CE8269F800172
:1036F000279F100D11240C501C4FB12CA12C87E3D7
:10370000682E81E0782ECE0101964C016801F12CE3
:10371000E12CF601859194919F938F937F926F9204
:103720009F928F920E94BF38C4010E94A91A9FEFF6
:10373000E91AF90A82E0C80ED11C0F900F900F9081
:103740000F900F900F909EE0E916F10411F781E2BF
:1037500091E00E94A91A8FEFA81AB80A045E1F4FC1
:1037600095E0A916B10491F628960FB6F894DEBF3D
:103770000FBECDBFDF91CF911F910F91FF90EF90C2
:10378000DF90CF90BF90AF909F908F907F906F9081
:1037900008958F929F92AF92BF92CF92DF92EF9255
:1037A000FF920F931F93CF93DF93CDB7DEB72A9786
:1037B0000FB6F894DEBF0FBECDBF80918F04882373
:1037C00009F45CC08091A304882309F457C0809158
:1037D000B704882309F452C04AE050E070E060E08A
:1037E0008FE894E00E940A376B014AE050E070E0F5
:1037F00060E083EA94E00E940A374B014AE050E01F
:1038000070E060E087EB94E00E940A372EE0289D8C
:10381000F001299DF00D112446E44C9D90014D9D31
:10382000300D1124E20FF31FE60FF71FEE0FFF1FFD
:10383000EC50FC4F059114914AE0BE016F5F7F4F41
:10384000C8010E944F3840E1BE016A5F7F4FC80146
:103850000E944F3882EC93E00E94371ACE01069600
:103860000E94A91A8FEB93E00E94371ACE010196AD
:103870000E94A91A8CEB93E00E94371A2A960FB681
:10388000F894DEBF0FBECDBFDF91CF911F910F9196
:10389000FF90EF90DF90CF90BF90AF909F908F9070
:1038A00008958EEA93E00E94371A8AEA93E00E9414
:1038B000371A88E993E00E94371A8AE893E00E9459
:1038C000371A86E793E00E94371A81E291E00C9460
:1038D000A91ACF93DF9381E08093D50660E471E06D
:1038E00083E896E00E949938E3EFF4E080E991E004
:1038F000DF019C011D9221503040E1F7CBE7D4E07D
:1039000060E471E0CE010E949938649634E0C33FD0
:10391000D307B1F785E492E0DF91CF910C94A91A17
:103920000C94DA18CF93DF93EC010E94901CCE0127
:10393000DF91CF910C94D81810927A0410927904E8
:1039400080EE90E00E94901C8EE090E00E94921C1D
:1039500080EE90E00C94D81810927A0410927904BA
:103960000E949C1C80E00C946015CF93DF93EC01C7
:1039700082EE90E00E94901CCE010E94921C82EE8A
:1039800090E0DF91CF910C94D818CF93DF93EC01A6
:1039900081EE90E00E94901CCE010E94921C81EE6C
:1039A00090E0DF91CF910C94D81810927A04109285
:1039B000790482EE90E00E94901C8FE490E00E94D7
:1039C000C51C82EE90E00C94D81810927A041092E4
:1039D000790482EE90E00E94901C80E590E00E94C5
:1039E000C51C8CE490E00E94C51C81EE90E00C9414
:1039F000D818CF93DF93EC0183EE90E00E94901CE7
:103A0000CE010E94921C83EE90E0DF91CF910C9446
:103A1000D81810927A04109279048FE490E00E94F2
:103A2000C51C8BE190E00C94F91C10927A04109262
:103A3000790480E590E00E94C51C8BE190E00C9435
:103A4000F91C10927A041092790482EE90E00E94A0
:103A5000901C8FE490E00E94C51C8FE490E00E94CF
:103A6000C51C80E590E00E94C51C82EE90E00E949B
:103A7000D8188BE190E00C94F91C10927A04109203
:103A8000790482EE90E00E94901C8FE490E00E9406
:103A9000C51C82EE90E00E94D8188BE190E00C9457
:103AA000F91C4F925F926F927F928F929F92AF928A
:103AB000BF92CF92DF92EF92FF920F931F93CF931B
:103AC000DF9300D000D00F92CDB7DEB77C01DC01D0
:103AD00013968D919C911497892B41F08C9111969E
:103AE0009C9189238F3F11F00C9445270F900F90E4
:103AF0000F900F900F90DF91CF911F910F91FF903A
:103B0000EF90DF90CF90BF90AF909F908F907F907D
:103B10006F905F904F9008950E94C10F182F682FEB
:103B200089819A810E943C0769817A81812F0E9454
:103B30002A0E8C01F7018281882311F40C9434271A
:103B4000980122513F452031310510F00C941A277D
:103B50008FEF93E00E94613B4EEED42ED00E07E52E
:103B600012E08823D9F080913D07877009F4BECF19
:103B7000D70112968C91882309F4B8CF82E00E9475
:103B80002315B4CF0115F4E01F0769F3C8010E94A3
:103B9000613B811101C0DA940F5F1F4FD110F2CF4A
:103BA00019821A821B821C82BB24B39468012FEFF6
:103BB000C21AD20AC8010E94613B89831A828823F3
:103BC00091F29FEF980F933078F48A83B9820E5F59
:103BD0001F4FC6010E94613B8B83882321F2CE01D7
:103BE00001960E94A91AE2CF8601F9CF81E00E94D6
:103BF0003F150E94E414B7CF81E00E9400150E9497
:103C0000E414B1CF82E00E943F150E94E414ABCFD0
:103C1000882309F4A8CF992361F010927A041092B6
:103C200079048FE490E00E94F91C80E00E94601506
:103C30009ACF8FE490E00E94921C80E00E94601571
:103C400092CF882309F48FCF8091790490917A04E0
:103C500081363DE5930711F140F4892B09F083CFBC
:103C600080E590E00E94B51C7ECF8336BDE59B07C2
:103C7000F9F08F369D4509F076CF10927A041092B4
:103C8000790482EE90E00E94901C80E590E00E9412
:103C9000C51C82EE90E00E94D81865CF10927A047D
:103CA000109279040E94E51C80E00E9460155BCFB1
:103CB0000E94E51C58CF882309F455CF2091790440
:103CC00030917A042115310579F021363D4509F00E
:103CD0004ACF10927A041092790480E590E00E9415
:103CE000F91C0E94AC1C3FCF992319F00E94AC1C18
:103CF0003ACF81E69DE590937A048093790433CF9F
:103D0000882309F430CF2091790430917A04211569
:103D10003105E9F023363D4509F025CF10927A04AC
:103D20001092790480E590E00E94F91C81EE90E009
:103D30000E94901C8FE490E00E94F91C81EE90E0BC
:103D40000E94D8188BE190E00E94F91C0CCF9923B7
:103D500019F00E949C1C07CF83E69DE590937A049E
:103D60008093790400CF882309F4FDCE80917904F3
:103D700090917A048136ADE59A07A1F040F4892B41
:103D800009F0F1CE8FE490E00E94B51CECCE8336B2
:103D9000EDE59E0789F08F369D4509F0E4CE0E943F
:103DA000D51CE1CE10927A04109279040E943D1D38
:103DB00080E00E946015D7CE0E943D1DD4CE88239E
:103DC00009F4D1CE8091790490917A0481362DE561
:103DD0009207D1F040F4892B09F0C5CE80E590E040
:103DE0000E94921CC0CE8336ADE59A07B9F08F369B
:103DF0009D4509F0B8CE10927A041092790480E5BE
:103E000090E00E94C51CAFCE10927A041092790403
:103E10000E94151D80E00E946015A5CE0E94151D10
:103E2000A2CE882309F49FCE8091790490917A04E0
:103E30008136EDE59E07B9F038F4892B09F093CE71
:103E400080E00E9460158FCE83362DE5920791F0B9
:103E50008F369D4509F087CE80E79DE590937A04E3
:103E60008093790480CE82E69DE590937A048093D6
:103E7000790479CE84E69DE590937A048093790461
:103E800072CE882309F46FCE2091790430917A04A0
:103E900021368DE5380749F190F4232B09F063CEE4
:103EA0009923F1F08FE490E00E94F91C8CE490E0FB
:103EB0000E94921C10927A041092790454CE2336F8
:103EC000BDE53B0701F12F363D4509F04CCE109280
:103ED0007A041092790481E590E00E94C51C43CEDB
:103EE00081E590E00E94921C3ECE10927A041092DE
:103EF000790481E590E00E94921C0E949C1C80E065
:103F00000E94601530CE10927A041092790481E5F7
:103F100090E00E94921C0E949C1C25CE882309F4EC
:103F200022CE8091790490917A048136FDE59F0735
:103F3000D1F040F4892B09F016CE82E590E00E9482
:103F4000921C11CE83363DE59307D9F08F369D45FF
:103F500009F009CE10927A041092790482E590E07B
:103F60000E94C51C00CE10927A041092790482E55A
:103F700090E00E94921C0E949C1C80E00E946015B0
:103F8000F2CD10927A041092790482E590E00E94BA
:103F9000921C0E949C1CE7CD882309F4E4CD8091FB
:103FA000790490917A048136BDE59B07D1F040F405
:103FB000892B09F0D8CD8FE490E00E94921CD3CDDC
:103FC0008336FDE59F0799F08F369D4509F0CBCDEF
:103FD00010927A04109279048FE490E00E94C51C3C
:103FE000C2CD0E94091D80E00E946015BCCD0E94D8
:103FF000091DB9CD882309F4B6CD10927A04109228
:104000007904992381F080E590E00E94F91C88E210
:1040100090E00E94921C82E590E00E94921C80E059
:104020000E946015A0CD8FE490E00E94F91C88E208
:1040300090E00E94921C80E00E94601594CD88233D
:1040400009F491CD10927A0410927904992369F0C1
:1040500082E590E00E94921C80E590E00E94F91CAD
:1040600089E190E00E94F91C7ECD89E190E00E94F8
:10407000F91C79CD882309F476CD10927A04109238
:104080007904992339F080E590E00E94F91C0E94A0
:10409000AC1C69CD8FE490E00E94C51C8BE190E0E0
:1040A0000E94F91C80E00E9460155DCD882309F410
:1040B0005ACD10927A04109279048DE190E00E941A
:1040C000F91C51CD882309F44ECD8FE69DE59093E0
:1040D0007A048093790447CD882309F444CD8091F4
:1040E000790490917A0483363DE5930709F44EC034
:1040F000E8F48136BDE59B0789F1D0F5892B09F0FD
:1041000032CD82EE90E00E94901C8FE490E00E94FD
:10411000921C8FE490E00E94921C80E590E00E9447
:10412000921C82EE90E00E94D8181DCD8F36FDE5DE
:104130009F0779F180372DE5920709F443C0843653
:104140009D4509F010CD10927A041092790480E513
:1041500090E00E94B51C0E943D1D05CD10927A048E
:10416000109279040E94211D80E00E946015FBCC12
:1041700010927A041092790480E590E00E94B51CB8
:104180000E943D1D80E00E946015EDCC0E94211D23
:10419000EACC10927A041092790482EE90E00E94A8
:1041A000901C8FE490E00E94C51C8FE490E00E9478
:1041B000C51C80E590E00E94C51C82EE90E00E9444
:1041C000D818D1CC10927A041092790480E590E04E
:1041D0000E94B51C0E94D51CC6CC882309F4C3CC10
:1041E0008FE490E00E94C51C8BE190E00E94F91CD6
:1041F000BACC882309F4B7CC10927A0410927904CF
:104200009923A9F080E590E00E94F91C81EE90E0EE
:104210000E94901C8FE490E00E94F91C81EE90E0D7
:104220000E94D81886E090E00E94F91C9CCC86E0A1
:1042300090E00E94F91C97CC882359F010927A04E0
:10424000109279040B329DE5190719F40E94691C3C
:104250008ACC9091D506992309F412C1882309F4D8
:104260000FC10C32ADE51A0719F40E94A31A7BCCDA
:10427000C80190568115B0E29B0728F0905E811529
:10428000904108F068C0C80199278135910508F070
:1042900069C08F34910508F066CC8932910509F424
:1042A000D8C08A32910509F4DBC08832910509F043
:1042B00063C080910401882309F47CC0109204013A
:1042C00063E876E083EF94E00E9499381092D40678
:1042D0001092D30681E291E00E94A91A6FE371E087
:1042E00083E896E00E94233810E004E1009709F08B
:1042F00082C005E011E063E876E0D8018D919C91E1
:104300000E949038892B09F087C0D8011296ED9150
:10431000FC9109958091D506882309F424CC60E4AA
:1043200071E083E896E00E9499380BE714E060E4BE
:1043300071E0C8010E9499380C5E1F4F34E0033FC2
:104340001307A9F78BE396E00E94371A85E492E001
:104350000E94A91A08CC0F3F110511F008F090C077
:10436000C80193CF8235910509F4A7C008F4E4C0D1
:104370008835910509F49DCF8B33910508F080C0F5
:10438000198220914007322F327209F413C18054F0
:104390009D4FDC018C9189838981882309F470C049
:1043A00041E050E0BE016F5F7F4F83E896E00E94DE
:1043B000A03866C040E550E063EE75E083E396E028
:1043C0000E94B03840E550E063E975E083EE95E087
:1043D0000E94B03840E550E063E475E083E995E081
:1043E0000E94B03840E550E063EF74E083E495E06C
:1043F0000E94B03865CF109F90011124BC01C90103
:1044000085589B4F0E9499386FE371E090E080E0FF
:104410000E9423381F5F6ACF0C5F1F4FB1E001324B
:104420001B0709F068CFEFEFF0E722E0E150F04022
:104430002040E1F700C0000081E396E00E94371AB7
:1044400083E896E00E94A91A84E296E00E94371A57
:1044500061CF8FE396E00E94371A0E94691C83CBDC
:1044600083E896E0DC010D900020E9F7CD01845847
:104470009640882309F477CB8E57994FFC01108220
:10448000033FFCE51F0709F4FDC008F09AC0083D92
:104490003CE5130709F4EFC0093D8CE5180709F462
:1044A0000DC1073D9CE5190709F097C026E241EED2
:1044B00061EEC7010E946D1956CB0E94BF07809123
:1044C000D3069091D40605970CF04DCB03E816E087
:1044D000D8010D900020E9F78D0104581640D12C29
:1044E000C12CC016D10604F18091D3069091D40658
:1044F00020E5289FB001299F700D11246D507B4F3E
:1045000040E550E083E896E00E94B03883E896E00A
:104510000E94A91A8091D3069091D4060196909397
:10452000D4068093D3061FCB81E491E00E94A91AA0
:10453000BFEFCB1ADB0AD5CF0E94BF078091D3060D
:104540009091D40697FD0FCB03E816E0F801019097
:104550000020E9F78F0104581640D12CC12CC01659
:10456000D10604F18091D3069091D40620E5289FCE
:10457000B001299F700D11246D507B4F4FE450E026
:1045800083E896E00E94B03883E896E00E94A91A7A
:104590008091D3069091D40601979093D40680938E
:1045A000D306E1CA81E491E00E94A91AFFEFCF1A75
:1045B000DF0AD5CF211164CF8A579D4FFC0180813E
:1045C000EACE053FACE51A0709F46AC008F461C0F9
:1045D000063FECE51E0709F46AC0D70112968C91DC
:1045E000882309F467C41092180A0230BCE51B073F
:1045F00008F446C10631ECE51E0730F0C8018A5FB9
:104600009C45099708F03CC10E94F60D909347071E
:10461000809346070031FCE51F0709F400C108F04C
:1046200091C008303CE5130709F4EBC008F060C006
:1046300004309CE5190709F4DCC008F046C00230DC
:10464000BCE51B0709F4CFC08091460782600330A8
:104650001C4509F4CBC0609146071091470784E0E0
:1046600090E00E947F3B612F82E290E00E947F3BBE
:104670000E947F1578CA27E245EE65EEC7010E94C9
:104680006D1971CA26E241EE60EEC7010E946D19F4
:104690006ACA27E245EE64EEC7010E946D1963CA3B
:1046A00026E241EE62EEC7010E946D195CCA27E264
:1046B00045EE66EEC7010E946D1955CA28E241E039
:1046C00065EEC7010E946D194ECA80914607806150
:1046D0000630FCE51F0709F489C080914607886011
:1046E00007301C4508F482C08091460780627EC076
:1046F000809146078D7F0C303CE5130709F476C0A6
:1047000070F4809146078C600A309CE5190709F423
:104710006DC008F47AC0809146078E7F67C0809193
:104720004607877F0E30BCE51B0709F45FC0809108
:1047300046078B7F0F301C4508F458C08091460710
:104740008F7E54C00B3FFCE51F0709F456C030F5BF
:1047500003313CE5130709F46AC078F401319CE5A4
:10476000190709F460C002311C4509F074CF0E949A
:104770007F15809146078F7739C00531BCE51B074F
:1047800009F45DC008F471C08091470781600A3F59
:104790001C4509F060CF809347075DCF0F3F2CE5A4
:1047A000120709F448C070F40D3F8CE5180799F121
:1047B000809147078E7F0E3F1C4568F38091470725
:1047C0008360E9CF0130ADE51A0709F457C008F45A
:1047D00042C060E002301D4509F03DCF8EE090E020
:1047E0000E947F3B38CF80914607816080934607C7
:1047F00032CF809146078460F9CF8091470782606D
:10480000CACF809146078064F1CF0E947F158091C6
:1048100046078068EBCF809147078D7FBCCF8091A2
:1048200046078F7DE3CF809146078F7BDFCF809156
:104830004607837FDBCF809147078C7FACCF809189
:10484000460782FB992790F921E0922790FB82F995
:1048500090FB83F9CBCF80914707982F909591706B
:104860008E7F892B90FB81F996CF0E947F159091C6
:104870004607892F97FB87F98058B8CF61E0AECF04
:10488000809140070631FCE51F0709F020C38A7AB2
:1048900091E009F490E09093D60669E2811165E316
:1048A00082E594E00E9494060E94CF065CC9809144
:1048B000190A91E089278093190A109233010E9406
:1048C000E81251C946E053E16FE073E10E94D4075A
:1048D0004AC94FE053E166E073E10E94D40743C93F
:1048E00046E553E16FE573E10E94D4073CC94FE50B
:1048F00053E166E573E10E94D40735C94EE353E105
:104900006AE473E10E94D4072EC94AE453E16EE3DE
:1049100073E10E94D40727C942E353E166E273E1E1
:104920000E94D40720C942E753E168E673E10E9480
:10493000D40719C948E653E162E773E10E94D4073E
:1049400012C981E00E94F0120EC989E00E94F012A3
:104950000AC90B35ADE51A0701F10C351D4509F003
:10496000E1C28091470782FB882780F991E089277F
:104970000E948610D7C20E947F15EFEFF4E32CE06F
:10498000E150F0402040E1F700C000000E94B31168
:104990000E94D711E8C881E0EBCF80E0E9CFC801E1
:1049A0000E941407D82ECDC2E12FEF70AE2E107FDB
:1049B00019F0A29490EFA922DD20C9F0AA2069F095
:1049C00080E2800F883010F081100BC0809140078A
:1049D000A82AA09240070E94CF06802F0E94DA18D2
:1049E00018C080913F07A82AA0923F07F4CF802FDC
:1049F0000E949F18AA2069F0A094005E083010F071
:104A0000811027C080914007A822A09240070E94F1
:104A1000CF06AB2DA850BB0B149710F40E94B30720
:104A2000CC2009F463C880913D0780FD5FC8F70181
:104A300012828595859585950E943F15C7010E9434
:104A4000511D80913D078595859585950E9400159E
:104A50004DC880913F07A822A0923F07D8CFF12FE1
:104A6000FF709F2E107F103219F0929480EF9822E1
:104A7000882071F021E0821681F1DD20D9F1AA2091
:104A800091F1F701858180FFA8CF8F7085832BC0BE
:104A9000DD20B1F090914107892D892BA11003C031
:104AA0000E947D07B6CF31E0A312FACF20914707CD
:104AB00022FDAFCF891709F4ACCF80934107A9CF6E
:104AC000A11006C00E94C906892D0E947207A1CFBD
:104AD00081E0A81609F49DCFF5CFDD2031F092E0FA
:104AE0009A1508F496CF892DDBCFA1E0AA1508F41A
:104AF00090CFEACFAA2041F3F9E38F1209C02FEF3C
:104B000037EE83E0215030408040E1F700C00000E4
:104B1000802F0E949F187DCF812F86958695837068
:104B200061F0813009F075CFC8019370D11002C0D7
:104B300090E080E00E9487076CCFC8019370D1108D
:104B400002C090E080E00E949D0763CF802FDD20AF
:104B500029F00E94AB0C0E9496145BCF0E94F00BD0
:104B6000FACF812F837009F066C0D11052CF802F09
:104B7000829586958770880F880F602F6F70462EFC
:104B8000512C712C612C082E04C0440C551C661C41
:104B9000771C0A94D2F740E050E0BA0104FF0FC03E
:104BA0004FE050E060E070E004C0440F551F661F06
:104BB000771F8A95D2F74095509560957095812F13
:104BC000869586958370823019F1D8F4009142075A
:104BD000109143072091440730914507813069F0D7
:104BE0004429552966297729CB01BA01602371230D
:104BF000822393230E9475150CCF402A512A622AE2
:104C0000732ACB01BA016429752986299729F2CF25
:104C100044295529662977290091420710914307B5
:104C20002091440730914507CB01BA0160277127D5
:104C300082279327DFCF8695DD2011F0812F8170A9
:104C4000882309F4E6CE802F829586958770880F99
:104C5000880F602F6F70462E512C712C612C082EFE
:104C600004C0440C551C661C771C0A94D2F740E023
:104C700050E0BA0104FF0FC04FE050E060E070E088
:104C800004C0440F551F661F771F8A95D2F74095C1
:104C9000509560957095812F8695869583708230AA
:104CA00019F1D8F400911F0A1091200A2091210ACD
:104CB0003091220A813069F04429552966297729E3
:104CC000CB01BA0160237123822393230E94DA145B
:104CD000A0CE402A512A622A732ACB01BA01642944
:104CE000752986299729F2CF4429552966297729DC
:104CF00000911F0A1091200A2091210A3091220A66
:104D0000CB01BA016027712782279327DFCF1F705D
:104D1000DD2029F0812F0E943F15802FC1CE802FEA
:104D20000E947207812F0E94001573CE802F92EF90
:104D3000891609F454C0981578F0A0EF8A1639F155
:104D4000B1EF8B1609F443C0DD2009F463C0A11054
:104D500044CE812F8F7140C0E3EF8E1609F444C01A
:104D6000F4EF8F12F1CFDD2009F449C01F71812FBC
:104D70000E943F158091470782FD07C0A8E01A9F57
:104D8000C0011124836080933D07812F25C0DD2061
:104D9000C9F021E02A1508F43CCE1F7161E070E0F3
:104DA00080E090E004C0660F771F881F991F1A9556
:104DB000D2F700911F0A1091200A2091210A309108
:104DC000220AA0CF32E03A1508F423CEE6CF812F95
:104DD0008F71DD2009F4A7CF0E943F151ACE812FD5
:104DE0008F71DD20C9F39FCFDD2029F0812F8F71D6
:104DF0000E9460150ECE60E070E0CB0167CF81E0CD
:104E00000E942315B1E0BA1508F003CE82E00E949B
:104E10002315FFCDAA2059F0893309F079CEEFEFA1
:104E2000F7EE23E0E150F0402040E1F76FCE812F14
:104E30008F7179CF0031FFE51F0711F40C94F61D37
:104E400001312FE5120711F40C94021E90915204C7
:104E50009272F801EF55FD45E531F10508F0ECC916
:104E6000E959F34C0C94A13600313FE5130711F4D6
:104E70000C94FC1D01319FE5190741F782E00E9467
:104E800000150E94E4140C94B31D85E0F701DE01C7
:104E9000119601900D928A95E1F7D70112962C9107
:104EA00089819A8121110C948C1D0E941407182F5E
:104EB0000C94941D06311C45A9F58091D60669E233
:104EC000811165E382E594E00E946A06EDCC82726E
:104ED0000A3CECE51E0709F41FCD08F081C0053C33
:104EE0002CE5120709F4FCCC08F061C0033C9CE5FA
:104EF000190709F4E7CC08F0ECCC023CBCE51B0731
:104F000009F4D5CC0A352DE5120709F444CD08F093
:104F100020CD01158CE5180709F42DCD0E3D1C455B
:104F200009F436CDF701828100811181882309F4CB
:104F300036CDC8010E94C10FD82E682FC8010E942B
:104F40003C07B8018D2D0E94370E8C01882ED701A9
:104F50001296DC9012971596AC90A2943FE0A32293
:104F600080913D078770A1F0CD2CDD2091F0812F3D
:104F7000807F803421F080E2800F883048F082E02A
:104F80000E94231580913D078770CC24C394811122
:104F9000C12CB12EB2942FE0B222BBE0BB1508F4B5
:104FA00038CDEB2DF0E0E458F34C0C94A136073CDF
:104FB000ECE51E0709F4A2CC08F499CC083C2CE5DA
:104FC000120709F4A2CC093C3CE5130709F09ACF7B
:104FD00046E253E162E373E10E94D4070C94B31DEF
:104FE0000F3C9CE5190709F4B0CCB0F40C3CBCE5CF
:104FF0001B0709F49FCC08F496CC0D3CFCE51F0779
:1050000009F49FCC0E3C2CE5120709F07BCF84E01D
:105010000E94F0120C94B31D063D3CE5130750F4BA
:10502000013D1C4510F00C94B31D8EE00E94F0125F
:105030000C94B31D0D35100711F40C94B31D62CF01
:105040001F93CF93DF938091DD06807FA9F4809139
:10505000DA06882389F080910F07D091DE066091EF
:10506000D8067091D906A091DB06B091DC06C62F58
:10507000C72316E0D81304C0DF91CF911F91089584
:1050800090E0109711F0CF3F19F401968770F2CF9E
:10509000189F9001199F300D1124F901E152F94F29
:1050A00041814713F2CF40814613EFCF4281411136
:1050B000ECCF438154814A1B5B0B483C510528F7D8
:1050C0008091DD068F7080618093DD06F901EC51DF
:1050D000F94F80818F708061808388ED96E00E9417
:1050E000511DDF91CF911F910C946807AF92BF9231
:1050F000CF92DF92EF92FF920F931F93CF93DF93A4
:10510000CDB7DEB761970FB6F894DEBF0FBECDBF47
:105110008C0185E0F801DE011D9601900D928A95C3
:10512000E1F7F80180819181E28028EDA22E26E04E
:10513000B22E6091DB067091DC066115710509F4F1
:105140003EC13091D8064091D906232F24232F3F0A
:1051500009F435C1C380D480F090DA06F601E61B6D
:10516000F70BFF2009F4FBC02091DD06522F507F82
:10517000E83CF10508F0BBC0511178C0FE2C491382
:1051800021C038131FC0E1101DC02F702061209373
:10519000DD06C5010E94511D8091DD06F801858361
:1051A0008F2D61960FB6F894DEBF0FBECDBFDF9195
:1051B000CF911F910F91FF90EF90DF90CF90BF9014
:1051C000AF900895CD2829F0282F29232F3F09F0EB
:1051D00014C120E0F22FF170DF2E20FF3DC020919E
:1051E0000F074091DE0656E0241315C08D879E8779
:1051F0008D859E850E940310292F22952F702230C5
:10520000F8F0243020F59F70F9F0F8019581907F37
:10521000D9F4D12C1FC030E0529FF001539FF00D04
:105220001124E152F94F6181961306C06081861303
:1052300003C06281E61210C02F5F3F4F2770D4CFAA
:105240009F7011F0882329F3805E883010F3C80125
:105250000E94511DFD2CA4CFEE2009F4A1CF809116
:10526000DD0681608093DD06F12C9ACF491312C0D0
:10527000381310C0E1100EC0F8012583C8010E9448
:10528000511D86E0F801A8EDB6E001900D928A95D7
:10529000E1F786CF8D879E878D859E850E940D10B4
:1052A000882309F1EE20F9F08091DD06803270F05C
:1052B0002091D8063091D90638872F831986DB864E
:1052C000CA868C87CE0107960E94511D86E0F801A0
:1052D000A8EDB6E001900D928A95E1F70E94202892
:1052E000FF24F3945DCFC8010E94511DF9CF5111E5
:1052F0000AC088ED96E00E94511D86E0F5011192EA
:105300008A95E9F7B1CF49130FC038130DC0E110EA
:105310000BC0F8012583C8010E94511D86E0F501EC
:1053200011928A95E9F73CCF8D879E878D859E8562
:105330000E940D108823B9F2EE20A9F28091DD06BB
:10534000803220F22091D8063091D9063A83298301
:105350001B82DD82CC828E83CE010196B5CFE83CE4
:10536000F105E0F6FE2CEE2009F4BDCF491316C07E
:10537000381314C08091DD0680FD83CF982F907F75
:1053800009F47FCFF8018583903F09F477CF982FF8
:10539000907F905F8F70892B858370CF8D879E87DC
:1053A0008D859E850E940D10811190CF8091DD0624
:1053B00081608093DD06C8010E94511DF1CEEE2070
:1053C00009F491CF8D879E878D859E850E940D1053
:1053D000F82E882309F487CF86E0F801A8EDB6E01F
:1053E00001900D928A95E1F78091D8069091D906A7
:1053F0000E9403100E942028D3CE21E02E25EACE61
:105400001F93CF93DF93CDB7DEB767970FB6F894AE
:10541000DEBF0FBECDBF342F4B8B252F5C8B6D8B2A
:105420007E8B8F8B8E899F89611110923F071A8A1C
:10543000198A3D872E876F87998B888B86E0FE01BE
:105440003D96DE01179601900D928A95E1F7CE0107
:1054500007960E947628882389F016E080910F072E
:105460009091DE06891349C067960FB6F894DEBFA7
:105470000FBECDBFDF91CF911F91089586E0FE0151
:105480003796DE01119601900D928A95E1F78A8593
:105490009B85892B11F38F81988589238F3FE9F2B2
:1054A0002091DE0630E0C90101968770992740916E
:1054B0000F074817190671F40E947F151092DE0637
:1054C00010920F0786E0E8EDF6E0DF011D928A9565
:1054D000E9F7C3CF96E0929FD001939FB00D1124BE
:1054E000A152B94FFE01319601900D929A95E1F7C4
:1054F0008093DE060E946807B0CF819FC00111240F
:105500008152994F0E947628882309F4ADCF80916B
:105510000F0790E001968770992780930F079ECF21
:10552000AF92BF92DF92EF92FF920F931F93CF93B0
:10553000DF93CBE2D3E008E417E0D12CEE24E39430
:10554000F12C8991F894E82FE295EF70F0E021A119
:105550008F70A70102C0440F551F8A95E2F7CA0158
:10556000922F982B91A392A18095892382A378945E
:1055700000C0E0E3F3E030E020E0B12CA12C419149
:10558000A42FA295AF70B0E090968C9190E04F70F0
:1055900002C0959587954A95E2F780FD67C0C701DF
:1055A000022E02C0880F991F0A94E2F7A82AB92A8E
:1055B0002F5F3F4F2E30310511F7FE01319780816B
:1055C0000E94050D50EA5A95F1F7F801808191810A
:1055D000A816B90609F44DC0B182A08281E0D82A8C
:1055E0000E5F1F4FF3E0C033DF0709F0AACFDD20C5
:1055F00009F441C081E0809374040E948A1490935E
:1056000073048093720480917204909173040E94D9
:105610005B060497A0F18091480790914907909309
:10562000E5078093E40780914A0790914B07909398
:10563000E7078093E60780914C0790914D07909380
:10564000E9078093E80780914E0790914F07909368
:10565000EB078093EA078091500790915107909350
:10566000ED078093EC071092740409C090E080E08D
:105670009DCF80E0B4CF809174048111C4CF8D2D73
:10568000DF91CF911F910F91FF90EF90DF90BF902E
:10569000AF900895CDB7DEB7AB970FB6F894DEBFE5
:1056A0000FBECDBF84B7877F84BF0FB6F894A8958F
:1056B00080916000886180936000109260000FBE4E
:1056C00080E890E00FB6F8948093610090936100B9
:1056D0000FBE85B7806885BF85B7806885BF86E5C2
:1056E00096E090934F0480934E040E94B7030E946B
:1056F00082048091E20084608093E200789480913B
:1057000017088823A1F01091E9001F709091EC0018
:10571000892F817090FD80E8182B1092E90080910C
:10572000E80083FD0E9494151F701093E90082E049
:1057300084BD93E095BD9AEF97BD80936E0085EF91
:105740000E94050D84EF0E94050D81EF0E94050D5A
:1057500083E30E94050D82E30E94050D00E313E040
:105760002EE3E22E23E0F22ED8018D918D010E94CE
:10577000050DE016F106C1F710924907109248078F
:105780001092E5071092E40710924B0710924A0717
:105790001092E7071092E60710924D0710924C07FF
:1057A0001092E9071092E80710924F0710924E07E7
:1057B0001092EB071092EA071092510710925007CF
:1057C0001092ED071092EC0790E080E00E94693B98
:1057D0008A3E9E4F11F00E94D71182E090E00E9415
:1057E000613B8093D9070E94F60D90934707809301
:1057F00046070E94902AEFEBFDE53197F1F700C0D4
:1058000000000E94902A8091E40780FF17C06FEF8C
:1058100083E290E00E947F3B6FEF84E290E00E9481
:105820007F3B6FEF85E290E00E947F3B6FEF7FEF61
:1058300090E080E00E949D3B0E94B31183E090E0E5
:105840000E94613B682F70E090E080E00E94751537
:105850000E9442121092E9098FEF9FEF9093030A82
:105860008093020A9093050A8093040A9093070A92
:105870008093060A9093090A8093080A90930B0A72
:1058800080930A0A90930D0A80930C0A90930F0A52
:1058900080930E0A9093110A8093100A1092530776
:1058A00090936D0780936C0790936F0780936E07BA
:1058B000909371078093700790937307809372079A
:1058C000909375078093740790937707809376077A
:1058D000909379078093780790937B0780937A075A
:1058E00090E080E00E94693B8A3E9E4F21F00E943A
:1058F000D7110E947C1346E050E06CE170E089E132
:105900009AE00E94513B8091190A8C7F11F40E9409
:105910007C1383E290E00E94613B813211F00C9491
:10592000653584E290E00E94613B863011F00C9472
:10593000653585E290E00E94613B803311F00C9464
:10594000653585E291E09093CA078093C9078091FD
:105950001708853081F480E4E82E90E1F92E12E1F9
:1059600080911708853009F4A8C00E947F150E9415
:10597000B3071092CB070E94902A882359F08FB763
:10598000F8944091EE075091EF076091F007709105
:10599000F1078FBFA4EEB7E0EAEDF7E0F12CE12CC0
:1059A0009E2CAD90BD90219131912A153B0509F4B3
:1059B000E4C22A253B2510E0CC24C394D12CA901B4
:1059C0004C215D21452B09F4D2C219A39AA2AC2027
:1059D000BD2081E0A114B10409F480E08BA30E94F2
:1059E0008A148160782F9DA38CA349A15AA16BA131
:1059F0008DA10E94002AF701EE0FFF1FE652F84F1B
:105A000080819181C826D926D182C082AB2871F0CD
:105A10008EE08E9DF0018F9DF00D1124E35BFC4F15
:105A2000E10FF11D80818F3F09F094C000E070907C
:105A30005307C02ED12CC601870D911D099764F123
:105A400088E090E05C01AC18BD08B6016C5A784F54
:105A5000A50184E597E00E948738B601645A784F23
:105A6000A5018CE597E00E948738A501440F551FDA
:105A7000B601660F771F6459784F8CE697E00E9455
:105A80008738B6016C59784FA50184E697E00E94EB
:105A900087387A94709253078091530790E0EBA572
:105AA000AE2FB0E09D01220F331F2D563C4FAA0FA1
:105AB000BB1FBD016C567C4F65C0809117088430B8
:105AC00009F433C040E060E080E00E941F0821E05C
:105AD0002093CB0740E060E080E00E941F0831E0A7
